{
  "_format": "hh-sol-artifact-1",
  "contractName": "HelloWorld",
  "sourceName": "contracts/HelloWorld.sol",
  "abi": [
    {
      "inputs": [
        {
          "internalType": "string",
          "name": "_language",
          "type": "string"
        }
      ],
      "stateMutability": "nonpayable",
      "type": "constructor"
    },
    {
      "inputs": [
        {
          "internalType": "string",
          "name": "_language",
          "type": "string"
        }
      ],
      "name": "changeFavouriteLanguage",
      "outputs": [],
      "stateMutability": "nonpayable",
      "type": "function"
    },
    {
      "inputs": [],
      "name": "getFavouriteLanguage",
      "outputs": [
        {
          "internalType": "string",
          "name": "",
          "type": "string"
        }
      ],
      "stateMutability": "view",
      "type": "function"
    }
  ],
  "bytecode": "0x60806040523480156200001157600080fd5b5060405162000cb938038062000cb9833981810160405281019062000037919062000294565b620000836040518060400160405280601a81526020017f4d79206661766f7572697465206c616e67756167652069733a2000000000000081525082620000a360201b6200020c1760201c565b80600090805190602001906200009b92919062000172565b5050620004b3565b620001458282604051602401620000bc9291906200031a565b6040516020818303038152906040527f4b5c4277000000000000000000000000000000000000000000000000000000007bffffffffffffffffffffffffffffffffffffffffffffffffffffffff19166020820180517bffffffffffffffffffffffffffffffffffffffffffffffffffffffff83818316178352505050506200014960201b60201c565b5050565b60008151905060006a636f6e736f6c652e6c6f679050602083016000808483855afa5050505050565b82805462000180906200040e565b90600052602060002090601f016020900481019282620001a45760008555620001f0565b82601f10620001bf57805160ff1916838001178555620001f0565b82800160010185558215620001f0579182015b82811115620001ef578251825591602001919060010190620001d2565b5b509050620001ff919062000203565b5090565b5b808211156200021e57600081600090555060010162000204565b5090565b600062000239620002338462000389565b62000355565b9050828152602081018484840111156200025257600080fd5b6200025f848285620003d8565b509392505050565b600082601f8301126200027957600080fd5b81516200028b84826020860162000222565b91505092915050565b600060208284031215620002a757600080fd5b600082015167ffffffffffffffff811115620002c257600080fd5b620002d08482850162000267565b91505092915050565b6000620002e682620003bc565b620002f28185620003c7565b935062000304818560208601620003d8565b6200030f81620004a2565b840191505092915050565b60006040820190508181036000830152620003368185620002d9565b905081810360208301526200034c8184620002d9565b90509392505050565b6000604051905081810181811067ffffffffffffffff821117156200037f576200037e62000473565b5b8060405250919050565b600067ffffffffffffffff821115620003a757620003a662000473565b5b601f19601f8301169050602081019050919050565b600081519050919050565b600082825260208201905092915050565b60005b83811015620003f8578082015181840152602081019050620003db565b8381111562000408576000848401525b50505050565b600060028204905060018216806200042757607f821691505b602082108114156200043e576200043d62000444565b5b50919050565b7f4e487b7100000000000000000000000000000000000000000000000000000000600052602260045260246000fd5b7f4e487b7100000000000000000000000000000000000000000000000000000000600052604160045260246000fd5b6000601f19601f8301169050919050565b6107f680620004c36000396000f3fe608060405234801561001057600080fd5b50600436106100365760003560e01c806338e69ac71461003b5780637f4f8fa914610059575b600080fd5b610043610075565b604051610050919061058e565b60405180910390f35b610073600480360381019061006e9190610514565b610145565b005b60606100b56040518060400160405280601a81526020017f47657474696e67206661766f7572697465206c616e67617567650000000000008152506102a8565b600080546100c2906106f2565b80601f01602080910402602001604051908101604052809291908181526020018280546100ee906106f2565b801561013b5780601f106101105761010080835404028352916020019161013b565b820191906000526020600020905b81548152906001019060200180831161011e57829003601f168201915b5050505050905090565b6101f26040518060600160405280602d8152602001610794602d91396000805461016e906106f2565b80601f016020809104026020016040519081016040528092919081815260200182805461019a906106f2565b80156101e75780601f106101bc576101008083540402835291602001916101e7565b820191906000526020600020905b8154815290600101906020018083116101ca57829003601f168201915b505050505083610341565b8060009080519060200190610208929190610409565b5050565b6102a482826040516024016102229291906105b0565b6040516020818303038152906040527f4b5c4277000000000000000000000000000000000000000000000000000000007bffffffffffffffffffffffffffffffffffffffffffffffffffffffff19166020820180517bffffffffffffffffffffffffffffffffffffffffffffffffffffffff83818316178352505050506103e0565b5050565b61033e816040516024016102bc919061058e565b6040516020818303038152906040527f41304fac000000000000000000000000000000000000000000000000000000007bffffffffffffffffffffffffffffffffffffffffffffffffffffffff19166020820180517bffffffffffffffffffffffffffffffffffffffffffffffffffffffff83818316178352505050506103e0565b50565b6103db838383604051602401610359939291906105e7565b6040516020818303038152906040527f2ced7cef000000000000000000000000000000000000000000000000000000007bffffffffffffffffffffffffffffffffffffffffffffffffffffffff19166020820180517bffffffffffffffffffffffffffffffffffffffffffffffffffffffff83818316178352505050506103e0565b505050565b60008151905060006a636f6e736f6c652e6c6f679050602083016000808483855afa5050505050565b828054610415906106f2565b90600052602060002090601f016020900481019282610437576000855561047e565b82601f1061045057805160ff191683800117855561047e565b8280016001018555821561047e579182015b8281111561047d578251825591602001919060010190610462565b5b50905061048b919061048f565b5090565b5b808211156104a8576000816000905550600101610490565b5090565b60006104bf6104ba84610664565b610633565b9050828152602081018484840111156104d757600080fd5b6104e28482856106b0565b509392505050565b600082601f8301126104fb57600080fd5b813561050b8482602086016104ac565b91505092915050565b60006020828403121561052657600080fd5b600082013567ffffffffffffffff81111561054057600080fd5b61054c848285016104ea565b91505092915050565b600061056082610694565b61056a818561069f565b935061057a8185602086016106bf565b61058381610782565b840191505092915050565b600060208201905081810360008301526105a88184610555565b905092915050565b600060408201905081810360008301526105ca8185610555565b905081810360208301526105de8184610555565b90509392505050565b600060608201905081810360008301526106018186610555565b905081810360208301526106158185610555565b905081810360408301526106298184610555565b9050949350505050565b6000604051905081810181811067ffffffffffffffff8211171561065a57610659610753565b5b8060405250919050565b600067ffffffffffffffff82111561067f5761067e610753565b5b601f19601f8301169050602081019050919050565b600081519050919050565b600082825260208201905092915050565b82818337600083830152505050565b60005b838110156106dd5780820151818401526020810190506106c2565b838111156106ec576000848401525b50505050565b6000600282049050600182168061070a57607f821691505b6020821081141561071e5761071d610724565b5b50919050565b7f4e487b7100000000000000000000000000000000000000000000000000000000600052602260045260246000fd5b7f4e487b7100000000000000000000000000000000000000000000000000000000600052604160045260246000fd5b6000601f19601f830116905091905056fe4368616e67696e67206661766f7572697465206c616e67617567652066726f6d202725732720746f2027257327a2646970667358221220b98f9c3f86aa6eb05c5989f531a1314344ca495648058d1eaa766deea4eb5c9a64736f6c63430008000033",
  "linkReferences": {},
  "deployedLinkReferences": {}
}